:040000006F009058A5
:100004000000000000000000E6030000E803000018
:1000140000000000860D0000000000000000000049
:10002400860D0000860D00000000000000000000A6
:10003400860D000000000000860D00000000000096
:10004400860D0000860D0000860D0000860D000060
:10005400860D0000860D0000860D0000860D000050
:10006400860D0000860D0000860D0000860D000040
:10007400860D0000860D0000860D0000860D000030
:10008400860D0000860D0000860D0000860D000020
:10009400860D0000860D0000860D0000860D000010
:1000A400860D0000860D0000860D0000860D000000
:1000B400860D0000860D0000860D0000860D0000F0
:1000C400860D0000860D0000860D0000860D0000E0
:1000D400860D0000860D0000860D0000860D0000D0
:1000E400860D0000860D0000860D0000860D0000C0
:1000F400860D0000860D0000860D0000860D0000B0
:1001040000000000860D0000860D0000860D000032
:10011400860D0000860D0000860D0000860D00008F
:10012400860D0000860D0000860D0000860D00007F
:10013400860D0000860D0000860D0000860D00006F
:10014400860D0000860D0000860D00009C0700004F
:10015400860D0000860D0000860D0000860D00004F
:10016400860D0000860D0000860D0000860D00003F
:10017400860D0000860D0000860D0000860D00002F
:10018400860D0000860D0000860D0000860D00001F
:10019400860D0000860D0000860D0000860D00000F
:1001A400000000000000000000000000000000004B
:0C01B4000000000000000000000000003F
:1001C000397101436EC619A0397141536AC866CAB4
:1001D00062CC5ECE19A0397101535AD056D252D496
:1001E0004ED64AD826DA22DC06DE3301614082820E
:1001F00041114AC026C222C406C68282B24D4101C4
:10020000024D924C224CB24B4101024B924A224A7F
:10021000B2494101024992442244B24041018280E4
:100220003367B500FD530D8B79E7B7877F7F9387E1
:10023000F7F710419441B372F6003363F600BE92B3
:10024000B3E262006397720C6318D6065041D44142
:10025000B372F6003363F600BE92B3E262006398B5
:10026000720A631BD60410459445B372F6003363DB
:10027000F600BE92B3E262006391720A631ED60278
:100280005045D445B372F6003363F600BE92B3E234
:100290006200639A72086311D60210499449B372DE
:1002A000F6003363F600BE92B3E262006393720815
:1002B0005105D105E30FD6F61317060193970601F2
:1002C000631CF7001357060193D706013305F74067
:1002D0009375F50F91E982804183C1833305F7401F
:1002E0009375F50F91E182801377F70F93F7F70F6E
:1002F0003305F74082800346050083C605000505E7
:1003000085056313D60065FA3305D6408280110552
:100310009105E312D6FE014582802105A105E31C6B
:10032000D6FC014582803105B105E316D6FC0145B6
:1003300082804105C105E310D6FC014582803D4322
:100340002A876373C3029377F700BDEFADE5937619
:1003500006FF3D8ABA960CC34CC30CC74CC7410775
:10036000E36BD7FE11E28280B306C3408A06970290
:10037000000096966780A6002307B700A306B70083
:100380002306B700A305B7002305B700A304B700F1
:100390002304B700A303B7002303B700A302B700E9
:1003A0002302B700A301B7002301B700A300B700E1
:1003B0002300B700828093F5F50F93968500D58DC5
:1003C00093960501D58D61B793962700970200009B
:1003D00096968682E78086FA9680C1171D8F3E9694
:1003E000E374C3F8A5B701A001A0EFF27FE001110B
:1003F000792AEF105045716513050520EF10B04ABA
:10040000B707002083A5870A374500001305C59468
:10041000EF101061EF10C015EF10604EEF10602B61
:10042000AA85374500001305C595EF10705F374565
:10043000000013058597EF10507037450000130535
:10044000059BEF10906F4800EF10501E4800EF1012
:10045000B027374500001305059EEF10106E374496
:100460000000930504A14800EF10502F19C92A86F7
:1004700037450000930504A11305C5A1EF10505A9C
:1004800001A037450000930504A1130585A3EF10D3
:100490003059FDB7B71702409843B706FFF0411136
:1004A0001367170098C3D84337060200758FD8C367
:1004B0009843B706F7FEFD16758F98C39843B706A5
:1004C000FCFFFD16758F98C3D843B70601FFFD16D4
:1004D000758FD8C39843B70600ECFD16758F98C387
:1004E0003707FF0098C723A6070202C402C6984335
:1004F000C166558F98C3B716024005679C42F18FBD
:100500003EC6A24785073EC4B24781E7A247E397AC
:10051000E7FEB71702409C431397E70063570706AF
:1005200085473EC632478547631FF704B717024029
:10053000D843B706C1FFFD16D8C3D843D8C3D843A4
:1005400013670740D8C3D843758FD8C3D843B706BD
:100550002900558FD8C39843B7060001558F98C31B
:10056000984393166700E3DD06FED843B7160240B2
:10057000719BD8C3D84313672700D8C32147DC42F7
:10058000B18BE39EE7FE4101828002C661BF371650
:1005900002405C42370700209146B18B1307870A5F
:1005A0006385D700A1466389D702B7177A0093877E
:1005B00007201CC3B7170240DC43918393F6F70072
:1005C000B707002093870700B69783C607001C4330
:1005D000B3D7D7001CC3828054425042C167C9823E
:1005E000BD8A7D8E9387260085CABD466389D70262
:1005F000C1466389D702C54581466393B700C147A9
:100600000DE63746024003260680418A15C6371696
:100610007A00130606202DA08146C947D5B7854626
:10062000B547F9BF8146BD47E1BF3716024050428A
:100630009315E600E3DD05FC37163D001306069032
:10064000B387C7021CC3BDD61C4385839DB7B707BC
:100650000050130740F8A386E7001387C18F98CB9B
:100660001387C18798CF1387C18BD8CFA38907027F
:10067000A38F070209472389E702238DE702239C02
:1006800007029387C18223800700A380070023818C
:100690000700A381070023820700A38207002383AA
:1006A0000700A383070082809307F5FF93F7F70FF6
:1006B00019486362F80EEFF21FB29387C182AA97BE
:1006C00083C707009384C182054793F7F70FD5EFDF
:1006D00085476305F5001147631DE500B707005026
:1006E00083C7C700054793F7F70F6310E5049183AD
:1006F0002DA81307E5FF1377F70F63EAE700B707A5
:10070000005083C7D7000D4793F7F70FF9BF1307C2
:10071000B5FF1377F70F63E1E704B707005083C70E
:10072000E70093F7F70FE30405FD13F847000147CF
:10073000630D08043704001411042A94A18BB289B4
:100740002A890A048DC30840B7070020938707044D
:100750003E95EF10902121A8B707005083C7F700FE
:1007600093F7F70FD9B785E6C205C1810CC085475D
:10077000338524012300F50023103403834724022A
:10078000014793F7C70F2301F4023A85BDBC084027
:10079000B707002075BF05473A858280011122CE38
:1007A00026CC4ACA4EC852C656C437040050034726
:1007B0006400834774001377F70F937627006380F4
:1007C000065693F7F70F13F7070393080002630C1D
:1007D0001705930600036309D71631EF13F7F703E4
:1007E000630007148D466318D70493F70704A1C765
:1007F000835584008347F4031385C18B93C7470057
:10080000A30FF4028347F40393F7C70F93E727007E
:10081000A30FF402EF00304E8347F40393F7C70FA2
:10082000A30FF40209A893F7F7036384E702130701
:1008300020026382E70CB707005009472383E700D3
:100840007244E2445249C249324AA24A05617300E5
:1008500020309387818383D7070093848183C207E5
:10086000C18381E79147A309F40283C7A18393F76A
:100870000706F1F383C74183154793F7F70F6380AA
:10088000E7061947E399E7FA83D704001307F00353
:10089000130400046366F70003D40400420441809B
:1008A00013890184832909002286CE851385C18F8F
:1008B000EF10B00B83D70400A29923203901818F58
:1008C000C207C1832390F400B70700502398870222
:1008D00003C72703134747002389E702A9BF370748
:1008E00000508347370083C6818293F70708D58F6E
:1008F000A301F70089B78347A40393F7C70F93E7D2
:100900002700230DF4028347A40393C74700230D58
:10091000F4029387C18223810700EF00102F21BFCB
:100920000357840093F70704E38707F083C7A18385
:1009300083D78183C207C183E39F07EE2318040294
:1009400091472309F402C5BD99472309F402A3097D
:10095000F4021387C18F834707009385A183238007
:10096000F5008347170083566700138641832300F1
:10097000F60003582700938781832390D70093863E
:10098000C18303534700239006011388618323101A
:10099000680003C80500138481831389A183137839
:1009A00008069385C18F9387C18393866183630211
:1009B00008088347090093F70706639217118347D6
:1009C00006009306E00F6395F6042300070023A0BA
:1009D000E18483470900E207E18763D307320357C5
:1009E00004009307000463E6E70083570400C2078E
:1009F000C183035704001D8F420741832310E40085
:100A0000370700502318F70291472309F70225B54D
:100A1000834706001307F00F6313F70AA38E0184C0
:100A2000238E0184238A0184A38F018423A6018459
:100A30004DB7034706002D461377F70F6361E608AD
:100A400011660A071306C6A432971843028703D714
:100A500007008946218393890184630AD7060D46DE
:100A60006305C7088547631EF70891671387C7A901
:100A700083C7C7A923A0E90081440357040063F496
:100A8000E7002310F400835704001307F003130A50
:100A900000046367F700035A0400420A135A0A016C
:100AA00083AA090052861385C18FD685569AEF1006
:100AB000C06B23A049019307F00FE39CF4F0B70744
:100AC00000501D472389E702A389E702ADB31167F0
:100AD0001307C7A78347370023A0E9000347270070
:100AE000A207BA97C207C18341BF83D70700054653
:100AF00093F7F70F6382C70289CB6387D702638DB1
:100B0000E70281479304F00F8DBF1387418123A033
:100B1000E90083C741818DB79167138707AB23A095
:100B2000E90083C707AB89BF9167138707AC23A090
:100B3000E90083C707AC89B79167138787AD23A006
:100B4000E90083C787AD0DBF83D7070093F7F70F81
:100B50002384F182BDBD83C791822380F5000357B2
:100B600004008547E3F7E7E62310F4009DB583D73B
:100B7000070093F7F70FA384F18205472385E182ED
:100B800089BD034709007D8B0DE383D70700054727
:100B900093F7F70FE39FE7E29387B18203C707005C
:100BA0001377E70F2380E7002DB5034709000946B7
:100BB0007D8BE316C7F083D7070093F7F70FE39019
:100BC00007F083D706008D4693F7F70F6382D702AD
:100BD00093062008E395D7EEB7070050238DE70270
:100BE00083C7F185918BE38607DEEF002072D5B3D2
:100BF000B7070050A38F0702E5B7034709007D8BB5
:100C000015E783D70700054793F7F70FE399E7EA5E
:100C1000916783C737A893F70702E38207EA9387B0
:100C2000B18203C7070013671700ADBF0347090070
:100C300009467D8BE315C7E883D7070093F7F70FC5
:100C4000E39F07E683D706000D4793F7F70F638FFF
:100C5000E70013072008E394E7E6370700508347CF
:100C6000A70393E73700230DF702A5B3370700501A
:100C70008347F70393E73700A30FF70299BB23805D
:100C80000500F1BD8347090023900500FD8B8DE32E
:100C900083C7B1828144858B81C789472380F50052
:100CA000035704008947E3F8E7E02310F40021B577
:100CB0008347090009479304F00FFD8BE392E7FE99
:100CC00083D706000D4793F7F70F6383E702930678
:100CD0002008E397D7FCB707005083C7A7038144D8
:100CE0008D8BE39FE7FA85472380F50081444DBF54
:100CF000370700500347F7030D8BE319F7FEE5B7FD
:100D000083570400C207C18399E7B70700502398AF
:100D100007021147D1B6B7070050114775B3937753
:100D2000170085C3A384018223840182A3850182E5
:100D300023850182A3010400193A85472303F400A7
:100D400001B6937747008DCF91472303F4002945DF
:100D5000EF100032034754009387B182118B11CBFF
:100D600003C70700136727002380E70083C7070036
:100D7000C1BC03C707001377D70F2380E700C9B4AE
:100D80002303E40075BC01A097010020938101B208
:100D900017F101201301012717350000130585EC19
:100DA00097F5FF1F938505261386818263FAC50098
:100DB0008322050023A0550011059105E3EAC5FE35
:100DC0001385818297050020938545486377B50098
:100DD000232005001105E36DB5FEFD42739002BCB2
:100DE000AD4273904280B762000093828208739094
:100DF000023097F2FFFF9382222193E23200739038
:100E00005230EFF02FE997F2FFFF9382425E73902A
:100E10001234730020301387F1850347070093874E
:100E2000F185058B19CFB706005003C7A6031367DA
:100E30003700238DE60203C707001377E70F2380EF
:100E4000E70003C70700098B19CFB706005003C797
:100E5000F60313673700A38FE60203C70700137773
:100E6000D70F2380E700828037170020130747221F
:100E70008346170193874184E20694C38346270182
:100E80009043C206B29694C3834637019043A206AC
:100E9000B29694C3904383464701B29694C3834667
:100EA00067019387C184A20694C3944303477701E3
:100EB000369798C39843320798C323940184A38E2E
:100EC0000184238E0184238A01848280EFF24FB251
:100ED000B717002003C64722130750059386F185F4
:100EE0006317E63A9387472203C6170013073005B6
:100EF000631FE63803C62700130720046319E6388A
:100F000003C63700130730046313E63803C64700EF
:100F1000138701852300C70003C6570083C5B700A8
:100F2000A300C70003C66700E2052301C70003C68C
:100F30007700A301C7001386C1840CC283C5A70034
:100F400008421387C184C205AA950CC283C59700C5
:100F50000842A205AA950CC2084283C58700AA953B
:100F60000CC2104219CA0386C7006351060603C6A5
:100F70000600136616002380C60003C6060093050C
:100F80003002136646002380C60003C6F700630BD9
:100F9000B61263E0C50AC945630EB60C63EDC5021F
:100FA0001385D1859385C185138741856307062AFB
:100FB0000D48630606271547A38EE1841307000238
:100FC000238EE1840547238AE1845DAC03C60600D5
:100FD000136626004DB7ED45630FB60CF945630C5B
:100FE000B60CE945E319B6FC83C6E185858A6386BC
:100FF000061A1043B14663F3C60014C31166814656
:10100000130606B00C4363EEB616138781851443AE
:10101000E1822382D7001443C182A382D700144304
:101020001843A1822383D700A383E70023A0F1867E
:101030002DA09305A002630CB60063E2C5029305E0
:101040005002630FB60C93078002E316F6F683C7CF
:10105000E185858B63830714013D6FF0AF9B93059A
:10106000F002630AB6049305A0056304B61493075F
:10107000E002E1BF14439307400263F3D7001CC3AF
:1010800083A64186B707002093870701E18223806A
:10109000D70283A6418623800700C182A380D7029E
:1010A00083A6418603A74186A1822381D702A3811B
:1010B000E70223A0F186A38E0184238E0184238A74
:1010C000018461BF83C6E185858AE1CA1043B146C8
:1010D00063F3C60014C3116681461306C6B00C4301
:1010E00063E4B602138781851443E1822382D7002B
:1010F0001443C182A382D70014431843A1822383DF
:10110000D700A383E70075B73305D6000345050074
:10111000B385D70085062380A50093F6F60FC1B7E7
:1011200083C6E185858AB5CA1043A14663F3C6002C
:1011300014C38146138681810C4363E8B60213878A
:1011400081851443FD16E1822380D7001443FD16E8
:10115000C182A380D70014431843FD16A1827D17D6
:101160002381D700A381E700A9B73305D600034543
:101170000500B385D70085062380A50093F6F60FFA
:1011800065BF3305D60003450500B385D700850646
:101190002380A50093F6F60FB5B50947A38EE18429
:1011A0001307A003238EE1840547238AE184A53138
:1011B0006DB503C617019306F003631CD6041043F4
:1011C000C14663F3C60014C311668146130606AF19
:1011D0000C4363E4B602138781851443E1822384C0
:1011E000D7001443C182A384D70014431843A182BB
:1011F0002385D700A385E70015BD3305D600034539
:101200000500B385D70085062380A50093F6F60F69
:10121000C1B71547A38EE1841307000261B7930697
:1012200000072390D70083460500A381070023A46D
:1012300007002381D700B706000AD4C383C6050080
:10124000A3860700239707002386D700239807006B
:1012500023A0F1862300070009B583C7E185858BAC
:1012600091C72300050023800500EDB789472300BF
:10127000F5009307A0032380F50085472300F700BE
:1012800083C7060093E717002380F6000DB71547C4
:10129000A38EE18413070002238EE1840947238A89
:1012A000E18483C7060093E717002380F60083C715
:1012B000060093E72700C9BFEFE29FF31387418041
:1012C0009387C18483560700904363F5C602035693
:1012D000070083560700984342064182158F98C342
:1012E00083A501864206854641820945EFF0CFBBC2
:1012F0006FE05FF2904323A007009387F18503C757
:1013000007001377E70F2380E700D9BFEFE25FEE16
:10131000B715002037574253A38F01841307573561
:101320009387452298C3138701858346070023A42A
:10133000070035462382D700834617009385452250
:101340000945A382D700834627000347370023833C
:10135000D700A383E70003C7418585462386E700BE
:10136000EFF08FB46FE01FEBEFE29FE8938781848B
:1013700083D7070013848184C207C18389E703A54B
:1013800041843205D92E9384418083D504003719D6
:1013900000201305491EDD2E03D604008546930563
:1013A000491E0945EFF04FB0835704008507C20777
:1013B000C1832310F4009386C18403D604009842AD
:1013C0009387C184118F98C28356040003D604000A
:1013D00005673347C702631ED700371701409146A0
:1013E0002328D780231004001387418414438506E3
:1013F00014C39C4389EB9387F18503C707001377D8
:10140000E70F2380E7006FE0FFE0EFE27FDE9387E6
:10141000F18503C70700058B11CFB717002003C75D
:101420003723930780026315F7003D3F6FE09FDE8F
:101430006135EDBF83C70700918BEDDBC13DFDB783
:10144000EFE27FD99387818483D707004111AA8572
:10145000C207C1831384818499E72AC603A5418406
:101460003205552CB245938441800355040083D73F
:101470000400B709002003D60400B387A702138530
:10148000491E1389C1843E95EF00304E83570400F6
:101490008507C207C1832310F40003D70400832704
:1014A0000900998F2320F9000357040083D6040014
:1014B0008567B3C7D702639DE702938741848C4356
:1014C00005661385491EB205A12E83270900938462
:1014D000418491EB9387F18503C707001377D70FFA
:1014E0002380E7002535231004009C4085079CC01D
:1014F00041016FE09FD1EFE2BFCF9387F18583C7B2
:101500000700898B81C72D3F6FE0DFD0FD47E39D4A
:10151000F5FEB71400202A881384F185814793844F
:1015200044227D47B306F80003C60600B386F400E4
:1015300085072380C600E397E7FEEFF03F998347D6
:101540000400898BF1F383470400858B99CB03C793
:10155000F400930780026314F700393575B7A93B8F
:1015600065B783C7418593F7F70FD9FF453369BF47
:10157000EFE27FC60565011185451105371401406D
:1015800002C002C202C402C602C802CA02CC231EA2
:101590000100EF00406D91478D4441498A85130554
:1015A00004802310F1004AC426C2A5291305048033
:1015B00091450D2B93070002E1498A8513050480AC
:1015C0002310F1004EC426C2A9299307000423105A
:1015D000F1008A859147130504803EC49921930741
:1015E00000088A85130504802310F1004EC426C22A
:1015F0000D29B70704013EC6B70702003EC8B7076A
:10160000000285073ECA6C009D4737350140231E06
:10161000F1004ACCEF000067854537350140EF0007
:10162000006C05616FE07FBEEFE29FBCAA841304EB
:10163000900C894537350140EF00006D0DC5A6853A
:1016400037350140EF00806B1304900C854537352A
:101650000140EF00606B19CD37350140EF00606A43
:101660001375F50F31A07D141374F40F79F0014553
:101670006FE05FBA7D141374F40F69F8CDBFEFE229
:101680003FB75D376FE01FB9EFE29FB61305F00F6C
:10169000613F6FE03FB8EFE2BFB537140140114939
:1016A000232A24811305F009D93F1305F00FAD3F1C
:1016B000931405011305F00F853F2205C98C13050E
:1016C000F00F9D371304048023282401458D6FE01B
:1016D0007FB4EFE2FFB1C1376FE0DFB3EFE25FB19C
:1016E000371401409144232A94801945493F13043B
:1016F000048004C86FE01FB2EFE29FAF37140140CF
:101700009144232A948015459D3FBD3F13040480D6
:1017100004C86FE03FB0EFE2BFADAA8437140140C8
:10172000753F1149232A248113050002893F13D5EF
:1017300004011375F50FA13713D584001375F50F48
:101740003D3F13F5F40F253F1304048023282401A3
:101750006537058975FD6FE0FFABEFE27FA9B7172D
:10176000014011472A8423AAE7800D45093F1355FC
:1017700004011375F50F2137135584001375F50F08
:10178000FD3D1375F40FE53D6FE0DFA8EFE25FA6C6
:101790002A84B304B500631494006FE0BFA7050466
:1017A000E535A30FA4FEC5BFB7170140114723A815
:1017B000E7808280EFE2DFA341112E8432C6AA8443
:1017C000313FB7170140114723AAE7800945453D3E
:1017D000135504011375F50F5D351355840013750A
:1017E000F50F713D1375F40F593D32469307001004
:1017F00063F4C700130600103384C400639D8400A3
:10180000B7170140114723A8E780FD35058975FD0D
:1018100041016FE03FA0850403C5F4FF8D35F9BF9A
:10182000EFE29F9A1359860093F7F50F2A84AE844E
:10183000B289137AF90FA9E7AA8A63060A02B38B61
:10184000A540130BF00F7D1A137AFA0FB3857A01B6
:1018500063116A031375F90F2205B385A40013F60B
:10186000F90F229521A04E86A6852285A1376FE02B
:101870003F99568513060010353F938A0A10E1B749
:101880003309F0401379F90F63110A021377F60F49
:10189000E37BE9FCBA974A8693F9F70F213F4E861E
:1018A000B305990033052401D1B7B3092641CA9481
:1018B0004A864A9413DA8900137BFA0F93FAF90FD8
:1018C000D53D2289338C8440930BF00F7D1B137B15
:1018D000FB0FB3058901631D7B019375FA0FA20508
:1018E0003305B400A695E3840AF813F6F90FBDBFDB
:1018F0004A85130600107D3D13090910C1BFEFE2B0
:101900009F8D513B9389418623A0A90083A509009F
:1019100037450000130585B1EF009010238701863D
:101920009387818623A007009387C18623900700B1
:1019300083A709003747EF00930667011389818663
:101940009384C186638CD7081384418663E5F604CB
:10195000B736EF00138636016382C70A6364F60266
:1019600013871601638FE708C90637070400638FE2
:10197000D7061840FD57630FF7081C40C1CF370743
:101980002000ADA051076381E708E36AF7FED506A2
:1019900037072000E9BFB766EF0013866601638F43
:1019A000C702636DF600930687016382D70663EE74
:1019B000D700930697013707000255BF13878601AA
:1019C0006387E704E506E3F8E7FE37450000130503
:1019D00045B4EF0090163707800009A8374500008E
:1019E000130505B3EF00701537074000318323203E
:1019F000E90085672390F4006FE03F813707080016
:101A0000F5B737070200DDB737071000C5B737074E
:101A10000001E9BF37450000130585B5EF00F0115F
:101A200001A09C4513F7070113F8F70001C7D8413F
:101A30003368E80083D5050013F7F50F39C3184163
:101A40008146854E3D4F930F800293028004214EC4
:101A50003396DE00B3F8C500631116039398260091
:101A600033131F011343F3FF3377E300B318180157
:101A700033E7E800639FF70550C98506E39AC6FD82
:101A800018C11307F00F6375B70454412146854E02
:101A90003D4F930F800293028004414EB398CE00D5
:101AA00033F715016392E802131726000117331369
:101AB000EF001343F3FFB376D3003317E800D98E5A
:101AC000639DF701232A15010506E319C6FD54C1DC
:101AD0008280E39457FA10C94DB7E39757FE232845
:101AE0001501DDB70CC98280371702405C4391466F
:101AF000B18B6385D700A1466386D706B7177A00F6
:101B0000938707201CC1371602405C42370700202C
:101B1000130747039183BD8BBA9783C607001C4107
:101B2000B3D7D7005CC15442A1829D8ABA9683C6BE
:101B30000600B3D6D70014C55442AD829D8A3697AD
:101B400003470700B3D7E7005CC558423983937653
:101B5000370013878180369703470700B3D7E70222
:101B60001CC982805C435843C166C983758FB7F630
:101B7000FF1F83A6C670BD8B8907139616016348A5
:101B80000600C54601466392D702C94739A889466F
:101B9000638FD702BD46638ED702C146638ED702DC
:101BA000C54601466393D700C1471DEF3747024042
:101BB00003270780418B05C737177A0013070720D3
:101BC000B307F7021CC121D21C41858325BF014602
:101BD0006DBF0546B547D1BF0146BD47F9B73717B9
:101BE0003D0013070790E9BFB7150240D85593167B
:101BF000F700D85563DF060411833D8B9306170069
:101C000037177A00130707203357D70218C1D45566
:101C1000A182BD8A8DE295463307D702058318C19C
:101C200037170240585714413D8B050733D7E6025A
:101C300018C1184171B785456394B600E546E9BF00
:101C4000BD456396B600D1463387E602C9BF890613
:101C5000E5BF3D8B9306170037177A00130707205F
:101C60003357D702F1B799C5371702401C4F5D8D26
:101C700008CF8280B7170240984F1345F5FF798D42
:101C800088CF8280035705008D679387070483D62A
:101C900025007D8F83D70500D58F83D64500D58F4E
:101CA00083D66500D58F83D68500D58F83D6A500D2
:101CB000D58F83D6C500D58F83D6E500D58FD98F34
:101CC0002310F5000357C501FD779387F77FF98F40
:101CD000231EF50083D705012318F5008280835762
:101CE000050091C593E707042310F5008280C20721
:101CF000C18393F7F7FBC207C183FDB72316B50075
:101D000082800355C5008280035585006D8D333573
:101D1000A0008280EFE2CFCD83560501F577FD1755
:101D2000F58F83D6650003D7C5007971D58F231849
:101D3000F5008356C500FD779387379FF58F83D6CF
:101D400045002A842EC6D58F83D68500D58F83D6AD
:101D5000A500D58F2316F50083574501C207C1831F
:101D600093F7F7CFD98F231AF5006808B53BB7472B
:101D7000014093870780B245631FF402A25765476D
:101D8000B387E7029841930640060A07B3D7E702F4
:101D900033D7D702B3F7D7021207920793872703E7
:101DA000B3D7D702BD8BD98FC207C1832314F400E8
:101DB00045616FE02FC69257D9B781C98357C500D7
:101DC0000967D98F2316F50082800357C500F9777C
:101DD000FD17F98FC5BF93F5F51F2312B50082805B
:101DE000035505006D8D3335A0008280AA9583C709
:101DF000350003C52500E2074205C98F03C505006C
:101E0000C98F03C5150022055D8D8280EFE24FBEAC
:101E10004111EFF09F9468008945EFF03F97EFF094
:101E2000BF980355C10041016FE0CFBEEFE24FBC48
:101E30002A8401710145EFF05F92930500200A8525
:101E4000EFF0DF94EFF05F962D45C9378347D1005F
:101E50002310A40039452301F4004D3F83470101BD
:101E60002312A40045452303F4004D372314A40096
:101E70004D45693F2315A4005945493F83476400F8
:101E80002316A400035704003385A7028357440098
:101E90003E958357840008C89607BA97FD17B3C7C5
:101EA000E7025CC8AA971CCC130101206FE08FB633
:101EB00083472500F915B385F5021C4D0355050030
:101EC000BE953385A5028280EFE2EFB0035905008D
:101ED0001C493971AA843309F90201449309500E4F
:101EE000374A000083D784006365F40021616FE006
:101EF000CFB1131554004A95EFF03F8693050002C9
:101F00000810EFF0BF88EFF03F8A83470102F9DF46
:101F1000638237058347B102A18B8DEF21460C10F8
:101F2000480802CA02CC230E010002C861210D46F6
:101F30002C1008084121F14508104D3D8355A1039F
:101F40002AC62685B5373247AA8610084C081305DD
:101F50004AB8F92405044204418069B7EFE2AFA70B
:101F6000035905001C493971AA843309F902AE8965
:101F70000144130A500E930AC1FF374B000083D768
:101F800084006364F40001454DA8131554004A957C
:101F9000EFF0AFFC930500020810EFF02FFFEFF019
:101FA000BF8083470102E5D3638647018347B102BF
:101FB000A18B89C7050442044180D1B721460C108A
:101FC000480002C202C42306010002C0E5260D46F5
:101FD0002C100A85C5265C0002C802CA02CC230E5A
:101FE000010013070002838677006397E600A3834E
:101FF0000700FD17E39957FF03072100930700022D
:10200000631EF70083071100230101006398E700B6
:1020100003070100A30001006304F702B5450A8726
:10202000540013068BB70808312ECE850808EFE060
:102030002F9F49F1F1450810553B21616FE0EF9C5E
:1020400023000100E1BFB707002083A7870A3717E5
:102050007A0013070720B3D7E70293F7F70F238916
:10206000F1861307803EB387E7022398F1868280CA
:10207000B7F700E0D8438146799BD8C303C72187CF
:102080003306A70290CBD4CB98431367070198C3BC
:1020900098431367170298C3D843058B75DF98439D
:1020A000799B98C38280EFE2AF942A841165011175
:1020B00085451105EFF03FBB930700202312F10087
:1020C000371501408D473EC44C00E147130505809C
:1020D0003EC6EFF01F9522C837440140B7070800FD
:1020E0000C08130504803ECC02CA231E0100EFF049
:1020F0007FC2854513050480EFF03FCC05616FE09A
:102100006F91EFE24F8DB7440140AE8932890144AF
:1021100093840480634524014A856FE00F8F930503
:1021200000042685EFF0DFCB7DD9B3878900838556
:10213000070026850504C205C181EFF0DFC9D9BFBC
:102140001387C1801C43B7160020938686243E95D2
:10215000636BD500B70602209386068063E5A60070
:1021600008C33E858280FD57EDBFB3C7A5008D8BA8
:102170003307C50081E78D4763EEC700AA87637008
:10218000E50A83C6050085078505A38FD7FEE3EA28
:10219000E7FE828093763500AA8791CA83C6050040
:1021A00085078505A38FD7FE93F63700FDB7937695
:1021B000C7FF138606FE63F0C70683A3050083A24C
:1021C000450083AF850003AFC50083AE050103AEB4
:1021D000450103A3850183A8C5019385450223A07A
:1021E000770003A8C5FF23A2570023A4F70123A665
:1021F000E70123A8D70123AAC70123AC670023AEB8
:1022000017019387470223AE07FF75B790419107E7
:10221000910523AEC7FEE3EBD7FEE3E4E7F6828049
:1022200039713EDA2ED232D436D63AD842DC46DE86
:102230009387018122CC804326CA06CEAA8409C492
:102240001C4C99E32285652B0C445410268622856C
:1022500036C6EF00B056F2406244D244216182801B
:10226000011126CA4AC806CE22CC4EC652C4AA8440
:102270002E8901C51C4D91E359239C4C804499E360
:102280002685B52B9727000093870796631CF402D9
:10229000C0408357C400A18BB1C71C48A1C7FD59DA
:1022A000294A1C4483450900FD17B1E91CC463DEBB
:1022B00007062286A94526850522FD576308F502F3
:1022C000294535A097270000938707946314F400ED
:1022D0008044C1B7972700009387078FE31BF4FA68
:1022E000C04445BFA2852685452A55D97D55F24073
:1022F0006244D2444249B249224A056182801CC4E8
:10230000050963D70700184C63CBE70063894501D3
:102310001C401387170018C02380B70059B72286C6
:1023200026855D28E31F35F7D1B71C4013871700BA
:1023300018C029472380E70061B793870181AA85E8
:10234000884339BF35713ECBA6DA36C73AC942CD8C
:1023500046CF9387018186DEA2DC844363DB0500E0
:102360009307B0089CC07D55F6506654D6540D6155
:10237000828093078020231AF1002AC42ACC814747
:1023800099C19387F5FF3EC83ECE7401FD572E8458
:1023900026852C00231BF10036C2EF009013FD5759
:1023A0006355F5009307B0089CC05DDCA24723800D
:1023B00007005DBFAA8709CA850503C7F5FF850722
:1023C0007D16A38FE7FE65FB3E966393C700828070
:1023D0008507A38F07FED5BF011122CC26CA4AC8A4
:1023E00006CE4EC6AA842E89328401C51C4D91E3C7
:1023F0003921971700009387277F6319F406C0409F
:102400001C4C1CC48357C400A18BC9C31C48BDCF3E
:102410001C4808409379F90F1379F90F1D8D5C481A
:102420006346F500A2852685652C2DE51C4405052F
:10243000FD171CC41C401387170018C023803701E8
:102440005C486389A7008357C400858B81CBA9476B
:102450006316F900A285268561240DEDF2406244E1
:102460004A85D2444249B2490561828097170000EB
:10247000938787796314F400804459B79717000055
:1024800093878774E31EF4F6C0449DBFA28526851A
:1024900021203DDD7D59D9B741119387018126C2A5
:1024A000844322C44AC006C62A892E8489C49C4C0F
:1024B00099E32685A926971700009387E772631C86
:1024C000F402C0400317C40093170701C18393F6B9
:1024D0008700B5EE93F607019DEEA5472320F9008E
:1024E000136707042316E4007D55B240224492444A
:1024F000024941018280971700009387E7706314B7
:10250000F4008044C1B7971700009387E76BE31B83
:10251000F4FAC04445BF918B8DC74C5889C99307C5
:1025200044046384F5004A85352B232A040283572B
:10253000C4002322040093F7B7FD2316F4001C48BF
:102540001CC08357C40093E787002316F4001C487F
:1025500081EF8357C4001307002093F70728638592
:10256000E700A2854A8585218357C40013F7170029
:1025700005C75C4823240400B307F0401CCC1C486A
:102580000145A5F78317C40013F7070839DF93E760
:1025900007042316F40089BF898B014791E358484B
:1025A00018C4F1BF83D7C500011122CC26CA06CEBC
:1025B0004AC84EC613F78700AA842E8471EFD8410B
:1025C000634DE000B841634AE0000145F2406244D7
:1025D000D2444249B2490561828058547DD703A94B
:1025E00004009396370123A0040063DD06067048BB
:1025F0008357C400918B99C75C401D8E5C5899C36A
:102600003C401D8E5C540C50814626858297FD57B8
:102610000357C400631DF5009440F54763E8D706EF
:10262000B70740208507B3D7D700858BA5C31C48C3
:10263000232204001CC09317370163D80700FD57FD
:102640006314F5009C4091E368C84C5823A0240112
:10265000ADDD930744046384F50026852121232AF8
:102660000402A5B70C500146854626850297FD5702
:102670002A86E31FF5F69C40A5DF75476385E700D2
:1026800059476394E70423A0240181B71367070423
:102690002316E4007D551DBF83A90501E38709F2D8
:1026A00003A905008D8B23A035013309394101476A
:1026B00091E3D84918C4E35A20F11C540C50CA863F
:1026C0004E86268582976349A0008357C40093E70E
:1026D00007042316F4007DBFAA993309A940E1BF7E
:1026E0009C49B9CF011122CC06CE2A8411C51C4DBC
:1026F00081E72EC62922B245971700009387C74E5F
:10270000639BF5004C408397C50095C722856244C2
:10271000F240056141BD971700009387E74E63942F
:10272000F5000C44CDB7971700009387E749E39C69
:10273000F5FC4C44C9BFF24062440145056182800A
:1027400001458280411122C406C62A842316B500A1
:102750002317C5002320050023220500232405009C
:102760002322050623280500232A0500232C050023
:10277000214681451305C505EFD07FBC97170000A2
:10278000938727EC5CD097170000938787EE1CD4C3
:10279000971700009387C7F25CD4971700009387C0
:1027A00087F500D01CD8B2402244410182809705B1
:1027B0000000938525F3A9A2411126C213068006C5
:1027C0009384F5FFB384C4024AC02E8922C406C68E
:1027D00093854407252E2A8401CD2320050023223A
:1027E0002501310508C4138684068145EFD03FB525
:1027F0002285B240224492440249410182801C4D0C
:10280000ADE3411106C622C497070000938767FA1B
:102810001CD5938701829C432324050423260504A9
:10282000232805046314F50085471CCD2A841D2840
:1028300048C02285052808C422852D2048C4484068
:1028400001469145013708440546A545E53D484404
:102850000946C945C53D85471CCCB24022444101CB
:102860008280828041119387018226C284434AC0BC
:1028700006C69C4C22C42A8999E32685493793844D
:1028800084048044DC40FD1763D607009C40B9CF28
:102890008440C5BF0317C40039E7C17785072322E9
:1028A00004062320040023220400232404005CC423
:1028B00023280400232A0400232C040021468145F8
:1028C0001305C405EFD0BFA7232A0402232C04025A
:1028D00023240404232604042285B2402244924483
:1028E0000249410182801304840671BF91454A85E3
:1028F000E13588C051FDB1472320F9000144E9BF0B
:10290000797122D44AD052CC56CA5AC85EC606D66D
:1029100026D24ECE2A8AAE8A130485040149054B7D
:10292000FD5B09ECB25022544A8592540259F24997
:10293000624AD24A424BB24B4561828004448329A9
:102940004400FD1963D409000040E1BF83D7C400EF
:10295000637BFB008397E40063877701A68552853C
:10296000829A3369A90093848406E1BF1971A6DABB
:10297000AE848395E500A2DC86DE328463DC05004C
:1029800083D7C40023A0060093F7070885E79307C1
:1029900000401DA0300836C6EF00705CB246E3412F
:1029A00005FE7247BD67F98F7977BA9793B717001D
:1029B0009CC2F1BF930700041CC0F6506654D65465
:1029C00001450961828083D7C500011122CC06CE62
:1029D00026CA4AC8898B2E8489CF930774041CC0E9
:1029E0001CC885475CC8F2406244D2444249056134
:1029F000828074003000AA84953FA2452A892685EA
:102A0000312201ED8317C40013F7072069FFF19B02
:102A100093E727002316F400C9B7970700009387B0
:102A200047D99CD48357C40008C008C893E7070857
:102A30002316F400A2475CC8B24791CF8315E40087
:102A40002685EF00F05401C98357C400F19B93E73A
:102A500017002316F4008357C4003369F9002316C6
:102A6000240151B7DDC183A7C5FF411122C406C6A9
:102A700026C21384C5FF63D307003E94AA84EF00E7
:102A8000B05D938741879C4381EF2322040023AAF2
:102A900081862244B2402685924441016F00F05B5A
:102AA000637EF40014403307D4006396E700984334
:102AB000DC43369718C05CC0D9BFBA87D84319C366
:102AC000E37DE4FE94433386D700631F8600104005
:102AD000B29694C33386D700E31DC7FA1043584318
:102AE000B29694C3D8C375B76375C400B1479CC090
:102AF0004DB71040B306C4006316D70014435843C3
:102B0000B29614C058C0C0C369B78280011126CAEA
:102B100093843500F19806CE22CC4AC84EC6A10453
:102B2000B14763F5F404B14463E4B4042A89EF00C7
:102B3000B0529387418798433A8429E493878187E9
:102B40009C4399E781454A85EF00502C23ACA18630
:102B5000A6854A85EF00902BFD5963193507B147CB
:102B60002320F9004A85EF00504F29A0E3DE04FA44
:102B7000B1471CC10145F2406244D2444249B249C6
:102B8000056182801C40858F63CF0702AD4663F6E6
:102B9000F6001CC03E9404C031A05C406313870261
:102BA00023AAF1864A85EF00504B1305B400930722
:102BB000440061993307F5405DDF3A94898F1CC06A
:102BC0005DBF5CC3C5B72287404085BF1304350095
:102BD0007198E30285FCB305A4404A85EF001023F9
:102BE000E31B35FBADBF01114AC803A9850022CC08
:102BF00052C45AC006CE26CA4EC656C22E84328B46
:102C0000368A63ED260983D7C50013F7074849C7FD
:102C100004408C495848AA8AB389B4408D44B3848F
:102C2000E4020947B3C4E402138716004E9763F326
:102C3000E400BA8493F70740D1C3A6855685F935D9
:102C40002A890DE5B14723A0FA008357C4007D55BA
:102C500093E707042316F400F2406244D244424949
:102C6000B249224A924A024B056182800C484E8644
:102C7000EFF0AFCF8357C40093F7F7B793E7070898
:102C80002316F4002328240144C84E99B384344108
:102C90002320240104C4528963732A015289084005
:102CA0004A86DA85EF00B0361C440145B3872741D8
:102CB0001CC41C403E992320240179BF26865685DA
:102CC000EF00D0392A895DFD0C485685EFF09FD979
:102CD00095BF83D7C500717126D34AD14ECF06D791
:102CE00022D552CD56CB5AC95EC762C566C393F78B
:102CF0000708AA892E89B284B9C39C49A9E3930520
:102D0000000436C6EFF09FE02320A9002328A90085
:102D1000B24615E1B14723A0F9007D55BA502A54B7
:102D20009A540A59FA496A4ADA4A4A4BBA4B2A4C27
:102D30009A4C4D61828093070004232AF90093077F
:102D40000002A30CF1029307000302DA230DF10243
:102D500036CE930B5002971A0000938AEAEC054C8A
:102D6000294B26848347040099C3639C7709B30CDD
:102D70009440638D0C00E6862686CA854E85A5356F
:102D8000FD576304F51AD256E69636DA83470400F7
:102D9000638D0718FD579304140002D002D63ED26B
:102DA00002D4A301010682DC83C5040015465685C2
:102DB000EF00502413841400825731E513F7070104
:102DC00009C713070002A301E10613F7870009C72B
:102DD0001307B002A301E10683C604001307A00293
:102DE000638BE602B25726848146254603470400DA
:102DF00093051400130707FD6374E6068DC63ED6DF
:102E00001DA0050485B7330555413315AC00C98FA6
:102E10003ED0A28451BF724793064700184336CE76
:102E2000634907023AD6034704009307E002631F91
:102E3000F704034714009307A002631BF702F2474D
:102E40000904138747009C433ACE63C107023ED270
:102E500035A83307E04093E727003AD63ED0E1B7E4
:102E6000B387670385462E84BA9749B7FD57C5B720
:102E7000050402D281468147254603470400930595
:102E80001400130707FD6378E606F1F2834504009A
:102E90000D46171500001305A5D9EF00B01511CD8B
:102EA000971700009387C7D81D8D93070004B39729
:102EB000A700025505045D8D2AD0834504001946FC
:102EC00017150000130505D793041400230CB10255
:102ED000EF00501225C597D7FFFF9387A71295E7FC
:102EE0000257F2471377071009CF91073ECED2570A
:102EF000D2973EDABDB5B387670385462E84BA976D
:102F0000ADBF9D07E19BA107D5B7780897060000E4
:102F10009386A6CD4A860C104E8597000000E700E8
:102F20000000FD572A8AE314F5FC8357C9007D553C
:102F300093F70704E39407DE5255CDB3780897065C
:102F40000000938686CA4A860C104E851929D1BF87
:102F50001C46FD171CC663DA0700184E63C5E70060
:102F6000A9476394F5006FF02FC71C422E85138785
:102F7000170018C22380B7008280011122CC26CA14
:102F80004AC84EC652C406CE2A89AE893284B304DA
:102F9000D6007D5A63149400014509A883450400B6
:102FA0004E864A8575370504E31645FFF2406244B4
:102FB000D2444249B249224A05618280357122CD0C
:102FC00026CB4AC94EC706CF52C556C35AC1DEDE0C
:102FD000E2DCE6DAAA89AE843289368409C51C4D62
:102FE00099E3EFF0DF81971700009387E7BF639BBA
:102FF000F40C83A4490083D7C400A18BF5C79C4877
:10300000E5C793070002A304F1029307000302D26D
:103010002305F10222C6930B5002971A0000938AEF
:10302000AAC0054C294B4A848347040099C3639086
:10303000770FB30C2441638D0C00E6864A86A68583
:103040004E85253FFD576306F51E9256E69636D20D
:1030500083470400638F071CFD571309140002C83F
:1030600002CE3ECA02CCA309010482D483450900E2
:1030700015465685412713041900C24759E913F72D
:10308000070109C713070002A309E10413F787002A
:1030900009C71307B002A309E10483460900130717
:1030A000A0026380E608F2474A848146254603472A
:1030B000040093051400130707FD6379E60AB5CAF7
:1030C0003ECE85A897170000938707B46395F40058
:1030D00083A489000DB7971700009387E7AEE39CA0
:1030E000F4F083A4C90001BFA6854E85EFF0CFBAE6
:1030F00009D97D55FA406A44DA444A49BA492A4A0C
:103100009A4A0A4BF65B665CD65C0D6182800504C8
:1031100021BF330555413315AC00C98F3EC8228904
:10312000B1B7324793064700184336C663490702D2
:103130003ACE034704009307E002631FF7040347F6
:1031400014009307A002631BF702B2470904138718
:1031500047009C433AC663C107023ECA35A83307FD
:10316000E04093E727003ACE3EC8E1B7B387670354
:1031700085462E84BA9725BFFD57C5B7050402CAF8
:103180008146814725460347040093051400130731
:1031900007FD6376E606F1F2834504000D46171538
:1031A00000001305E5A8B92511CD971700009387F6
:1031B00027A81D8D93070004B397A7004245050477
:1031C0005D8D2AC8834504001946171500001305B4
:1031D00065A6130914002304B102292D3DC197D718
:1031E000FFFF938727E295E74247B247137707101F
:1031F00009CF91073EC69257D2973ED22DB5B387DD
:10320000670385462E84BA97BDBF9D07E19BA10742
:10321000D5B7780097060000938666D626860C08F8
:103220004E8597000000E7000000FD572A8AE3144E
:10323000F5FC83D7C40093F70704E39C07EA125513
:1032400055BD780097060000938666D326860C0845
:103250004E85012AD9BF797156CA9C49BA8A9845C8
:1032600022D426D24ECE52CC06D64AD05AC85EC6FA
:10327000AA892E84B284368A63D3E700BA879CC0B9
:103280000347340419C385079CC01C4093F7070209
:1032900081C79C4089079CC00329040013796900F9
:1032A000631A0900130B9401FD5B5C449840998FED
:1032B000634CF9041C408346340493F70702B33689
:1032C000D000A5EB13063404D2854E85829AFD57B3
:1032D0006303F5041C4011469840998B5444814483
:1032E0006397C700B384E64063D3040081441C4461
:1032F00018486354F700998FBE94014969047D5BB7
:1033000063982405014509A885465A86D2854E85CD
:10331000829A631E75017D55B2502254925402590F
:10332000F249624AD24A424BB24B4561828005095A
:10333000ADBF3307D40013060003A301C70403473E
:10334000540493871600A2978906A381E7049DBFC2
:1033500085462286D2854E85829AE30E65FB050955
:1033600045B7797122D426D24AD04ECE06D652CC59
:1033700056CA5AC8B68983C6850193079006328912
:10338000AA842E8413863504638DF60263E2D70681
:10339000930780056388F61863EDD70063810622E2
:1033A00093073004638EF60A930A24042301D4049D
:1033B000C9A0930730066385F60A93074006E39594
:1033C000F6FE1C40084393F6070893054500C5C662
:1033D0001C410CC363D807001307D002B307F040A9
:1033E000A301E404971600009386468529476DA83B
:1033F000930700076384F61663E5D7029307E00698
:10340000638BF6189307F006E390F6FA0C401C4322
:1034100013F80508138547006307080608C39C4393
:103420008DA893075007E383F6FE93078007638B0D
:10343000F61293073007E399F6F61C43D041814515
:103440009386470014C383AA07005685652601C5E5
:103450003305554148C05C401CC8A301040471A851
:103460001C43930A2404938647009C4314C32301FE
:10347000F4048547D5B793F607041C410CC3B9DAA9
:10348000C207C18781BF93F5050408C3C9D983D793
:1034900007001307F0066388E60E97060000938680
:1034A000E6792947A30104044C400CC463C5050018
:1034B00008406D9908C099E3B28A91CDB28AB3F5FC
:1034C000E702FD1AB69583C505002380BA00B3D57F
:1034D000E70263F0E70CA147631EF7001C40858BF1
:1034E00091CB58401C4863C7E70093070003A38FA4
:1034F000FAFEFD1A3306564110C84E87CA86700080
:10350000A2852685EFF03FD57D5A631E450B7D557C
:10351000B250225492540259F249624AD24A424B62
:1035200045618280A382D5049706000093860671C8
:103530000C40084313F805081C411105630D0802EF
:1035400008C313F7150001C793E505020CC04147F6
:10355000B1FB0C4093F5F5FD0CC0A9B79C4193E776
:1035600007029CC193078007A302F404970600009A
:103570009386066E75BF13F8050408C3E30308FCC1
:10358000C207C1837DBF970600009386266B214743
:1035900011BFAE872DB794411C43CC4913F80608E0
:1035A000138547006306080008C39C438CC301A829
:1035B00008C393F606049C43F5DA2390B70023284A
:1035C0000400B28A1DBF14485686CA852685829992
:1035D000E30F45F31C40898B8DE7B2474844E3591C
:1035E000F5F23E8535B785465686CA852685829989
:1035F000E30F65F1050A5C443247998FE345FAFE13
:10360000E9BF014A930A94017D5BF5B7411122C4D9
:103610002A842E8597E7FF1F23A807C206C6EFE07E
:103620003FB2FD576319F50097E7FF1F9387C7C1A6
:103630009C4391C31CC0B24022444101828041118D
:1036400022C42E848395E50006C6AD246349050097
:103650007C48AA977CC8B2402244410182808357AB
:10366000C4007D777D17F98F2316F400EDB783D75B
:10367000C500011122CC26CA4AC84EC606CE93F711
:103680000710AA842E843289B68991C78395E500F4
:103690008946014635228357C4007D777D17F98F0F
:1036A0002316F4008315E4006244F240CE864A8675
:1036B000B24942492685D24405613DA8411122C440
:1036C0002E848395E50006C6E528FD570357C40000
:1036D000631BF500FD77FD17F98F2316F400B24048
:1036E0002244410182808567D98F2316F40068C87F
:1036F000FDB78395E50025A8411122C42A842E85B3
:10370000B285368697E7FF1F23A007B406C6EFE011
:103710005F9FFD576319F50097E7FF1F9387C7B2B7
:103720009C4391C31CC0B24022444101828041119C
:1037300022C42A842E8597E7FF1F23A707B006C659
:10374000752AFD576319F50097E7FF1F9387C7AFE9
:103750009C4391C31CC0B24022444101828041116C
:1037600022C42A842E85B28597E7FF1F23AE07ACBB
:1037700006C6692AFD576319F50097E7FF1F93876F
:10378000A7AC9C4391C31CC0B2402244410182803B
:10379000411122C42A842E8597E7FF1F23A607AA7A
:1037A00006C6AD2AFD576319F50097E7FF1F9387FB
:1037B000A7A99C4391C31CC0B2402244410182800E
:1037C000411122C42A842E85B285368697E7FF1FD1
:1037D00023AC07A606C6992AFD576319F50097E79B
:1037E000FF1F938767A69C4391C31CC0B24022442D
:1037F0004101828093F5F50F2A966314C5000145B7
:10380000828083470500E38DB7FE0505FDB763F3AE
:10381000A504B386C500637FD5029345F6FF8147B3
:10382000FD176393F50082803387F6000348070095
:103830003387C7002A9723000701DDB73387F500D8
:10384000834607003307F50085072300D700E317F9
:10385000F6FE82808147E5BF8280828081E5B28565
:103860006FF0CFAA011122CC06CE26CA4AC84EC696
:10387000328401EEEFF00F9F0149F24062444A8525
:10388000D2444249B24905618280AE84AA89A928FE
:103890002689E37485FEA2854E85EFF02FA72A893D
:1038A00069DDA6852286EFE05F8CA6854E85EFF068
:1038B0006F9BE1B7411122C42A842E85B2853686DA
:1038C00097E7FF1F23A2079806C68D28FD576319A7
:1038D000F50097E7FF1F938727979C4391C31CC070
:1038E000B24022444101828083A7C5FF1385C7FFF0
:1038F00063D50700AA959C413E9582809307800579
:1039000017E7FF1F2322F7947D55828093078005D8
:1039100017E7FF1F232AF7927D55828093078005C2
:1039200017E7FF1F2322F792014582809307800546
:1039300017E7FF1F232AF7907D55828093078005A4
:1039400017E7FF1F2322F7907D5582805379737408
:10395000656D436C6B3A25640D0A0000466C61731B
:103960006820756E697175652063686970204944C7
:103970003A20253038580A00464154313220573217
:103980003551333220344D2D6279746520535049BE
:10399000204E4F5220466C6173682053746F7261E1
:1039A00067652066696C65206C6973743A00000075
:1039B0003D3D3D3D3D3D3D3D3D3D3D3D3D3D3D3D37
:1039C0003D3D3D3D3D3D3D3D3D3D3D3D3D3D3D3D27
:1039D0003D3D3D3D3D3D3D3D3D3D3D3D3D3D000091
:1039E0003D3D3D3D3D3D3D3D3D3D3D3D3D3D3D3D07
:1039F0003D3D3D3D20454E44203D3D3D3D3D3D3D11
:103A00003D3D3D3D3D3D3D3D3D3D3D3D3D3D0A0056
:103A10005753434C492E48544D00000053697A6572
:103A2000206F662066696C652025733A2025752015
:103A300062797465730A000046696C6520257320FD
:103A40006E6F7420666F756E640A0000840C00004F
:103A5000820B0000BE0A0000FA0B0000BE0A000044
:103A6000480B00004E0A0000BE0A0000560B000082
:103A70006E0B00007E0C0000D2090000090220003D
:103A8000010100C0320904000002080650000705C9
:103A900082024000000705030240000012010002FC
:103AA00000000040861A10FE010001020001000023
:103AB0000E037700630068002E0063006E000000B4
:103AC00016034300480033003000780055004400DE
:103AD000690073006B0000001603300031003200F3
:103AE000330034003500360037003800390000005C
:103AF000000E0000000000080000003F0000100061
:103B00000B0000080000003F00001000000000084B
:103B10000000004002001000466C6173685F4A4577
:103B20004445435F49443A20253038780A00000074
:103B3000466C6173685F33324D625F6D656D6F72A5
:103B400079000000466C6173685F36344D625F6DCA
:103B5000656D6F727900000045787465726E616CF6
:103B600020466C617368206E6F7420636F6E6E65A3
:103B7000637465640D000000252E38732E252E33E6
:103B80007300000025732E25732020202D20202077
:103B9000737461727473206174206C6F63617469F3
:103BA0006F6E203078255820616E64206861732024
:103BB0007468652073697A653A2025752062797486
:103BC00065730A0000000000000000000000000013
:103BD00000000000000000000000000000000000E5
:103BE00000000000000000000000000000000000D5
:103BF00000000000000000000000000000000000C5
:103C000000000000000000000000000000000000B4
:103C100000000000000000000000000000000000A4
:103C200000000000232D302B20000000686C4C00A9
:103C300065666745464700003031323334353637E4
:103C400038394142434445460000000030313233A8
:103C500034353637383961626364656600000000C8
:103C6000000000000000000001020304060708092C
:103C7000008002021F000000466C61736820202053
:103C8000555342205370656369616C204469736BBE
:103C9000322E44300000000001020304010203043C
:103CA0000607080900000000E43B0000043C000097
:103CB000C43B000000000000000000000000000005
:103CC00000000000000000000000000000000000F4
:103CD00000000000000000000000000000000000E4
:103CE00000000000000000000000000000000000D4
:103CF00000000000000000000000000000000000C4
:103D0000000000000000000000D8B80540000000DE
:103D1000020406084812002044000020040309049D
:103D20000000003F000010004400002000000000E0
:00000001FF
